S01100004C6564426C696E6B792E7372656395
S113000000800010CD000000D5060000D7060000D7
S1130010D9060000DB060000DD0600000000000039
S1130020000000000000000000000000DF060000E7
S1130030E106000000000000E30600005102000099
S1130040E7060000E7060000E7060000E7060000F8
S1130050E7060000E7060000E7060000E7060000E8
S1130060E7060000E7060000E7060000E7060000D8
S1130070E7060000E7060000E7060000E7060000C8
S1130080E7060000E7060000E7060000E7060000B8
S1130090E7060000E7060000E7060000E7060000A8
S11300A0E7060000E7060000E7060000E706000098
S11300B0E7060000E7060000E7060000E706000088
S11300C0E7060000E7060000E70600000148804755
S11300D00148004755050000A903000008B540F297
S11300E01000074BC1F200001B1A062B00D808BDF4
S11300F040F20003C0F20003002BF8D09847F6E763
S11301001300001008B540F2100040F21003C1F2D1
S11301100000C1F200031B1A9B1003EBD3735910A8
S113012000D108BD40F20002C0F20002002AF8D05B
S11301309047F6E710B540F21004C1F200042378AA
S113014073B9FFF7CBFF40F20003C0F200032BB1F9
S113015041F20450C0F20000AFF300800123237089
S113016010BD00BF08B540F20003C0F200034BB15C
S113017041F2045040F21401C0F20000C1F2000147
S1130180AFF3008040F20000C1F2000003682BB11D
S113019040F20003C0F2000303B19847BDE80840F1
S11301A0FFF7B0BF80B483B000AF03463960FB7182
S11301B097F90730002B0DDA0E49FB7903F00F0392
S11301C0A3F104033A68D2B24FEAC202D2B2CB1806
S11301D01A760AE0084997F907303A68D2B24FEA2A
S11301E0C202D2B2CB1883F8002307F10C07BD4634
S11301F080BC704700ED00E000E100E080B582B013
S113020000AF78607A686FF07F439A4202D94FF06A
S1130210010316E00D4B7A6822F07F4202F1FF32AF
S11302205A604FF0FF304FF01F01FFF7BBFF074B41
S11302304FF000029A60054B4FF007021A604FF02E
S11302400003184607F10807BD4680BD10E000E032
S113025080B400AF044B1B6803F10102024B1A6027
S1130260BD4680BC704700BF2C00001080B485B030
S113027000AF7860074B1B68FB6000BF054B1A6832
S1130280FB68D21A7B689A42F8D307F11407BD467B
S113029080BC70472C00001080B582B000AF4FF0D6
S11302A0FF337B604FF001033B603C4B1A683C4BCF
S11302B0A3FB02134FEA931303F1FF331846FFF72E
S11302C09DFF4FF001004FF030414FF0010200F06C
S11302D0D9FB4FF002004FF07C014FF0010200F017
S11302E0D1FB4FF001004FF0304100F007FC4FF01C
S11302F002004FF07C0100F001FC7A683B68D318DF
S11303007B607B68082B06D14FF0FF333B604FF0D6
S113031007037B6008E07B68002B05DA4FF00103DC
S11303203B604FF000037B607B68022B1ADC1D4BA3
S11303307A6853F822304FF00100194600F0C8FBE8
S11303404FF4FA70FFF792FF164B7A6853F8223095
S11303504FF00100194600F0D1FB4FF4FA70FFF79B
S113036085FFCAE70F4B7A6853F822304FF002003A
S1130370194600F0ADFB4FF4FA70FFF777FF094B15
S11303807A6853F822304FF00200194600F0B6FBA9
S11303904FF4FA70FFF76AFFAFE700BF08000010E0
S11303A0D34D6210E414000080B500AFFFF774FF72
S11303B00346184680BD00BF80B483B000AF7860A8
S11303C03960FEE780B400AF5C4BD3F888304FEA65
S11303D0136303F00303032B75D1584BD3F80C318B
S11303E003F00303032B00F2A68001A252F823F0CA
S11303F0010400004304000085040000010400001F
S11304004E4BD3F888304FEA43434FEA534303F14A
S113041001034B4A02FB03F2484BD3F888304FEAFE
S11304201343DBB203F10103B2FBF3F2434BD3F802
S11304300431DBB203F10103B2FBF3F2414B1A6066
S113044079E03E4BD3F888304FEA43434FEA5343B5
S113045003F101033C4A02FB03F2384BD3F8883022
S11304604FEA1343DBB203F10103B2FBF3F2334B64
S1130470D3F80431DBB203F10103B2FBF3F2314BE5
S11304801A6058E02D4BD3F888304FEA43434FEAC3
S1130490534303F101034FEA0342284BD3F8883056
S11304A04FEA1343DBB203F10103B2FBF3F2234B34
S11304B0D3F80431DBB203F10103B2FBF3F2214BB5
S11304C01A6000BF37E01D4BD3F80C3103F003036F
S11304D0032B30D801A252F823F000BFED04000032
S11304E0050500001D050000ED040000134BD3F8C2
S11304F00431DBB203F10103144AB2FBF3F2114BF2
S11305001A6018E00D4BD3F80431DBB203F1010398
S11305100F4AB2FBF3F20B4B1A600CE0074BD3F813
S11305200431DBB203F101034FF40042B2FBF3F2F6
S1130530044B1A6000BFBD4680BC704700C00F402A
S113054000127A000800001000366E0100093D0018
S1130550001BB70080B400AF5A4B4FF02002C3F821
S1130560A021584BD3F8A03103F02003002B07D06F
S113057000BF544BD3F8A03103F04003002BF8D054
S1130580504B4FF00302C3F804214E4B4FF00002CE
S1130590C3F8A8214B4B4FF00002C3F8AC21494BE0
S11305A04FF00102C3F80C21464B474AC3F884209C
S11305B0444B4FF0AA02C3F88C20424B4FF0550233
S11305C0C3F88C203F4B4FF00102C3F880203D4B11
S11305D04FF0AA02C3F88C203A4B4FF05502C3F8EF
S11305E08C2000BF374BD3F8883003F08063002B96
S11305F0F8D0344B4FF00302C3F88020314B4FF056
S1130600AA02C3F88C202F4B4FF05502C3F88C205C
S113061000BF2C4BD3F8883003F04073002BF8D084
S1130620284B4FF02302C3F8A420264B4FF0AA0214
S1130630C3F8AC20234B4FF05502C3F8AC20214B38
S11306404FF00102C3F8A0201E4B4FF0AA02C3F8DA
S1130650AC201C4B4FF05502C3F8AC2000BF194B23
S1130660D3F8A83003F48063002BF8D0154B4FF077
S11306700302C3F8A020134B4FF0AA02C3F8AC2026
S1130680104B4FF05502C3F8AC2000BF0D4BD3F80C
S1130690A83003F44073002BF8D00A4B0B4AC3F87C
S11306A0C420084B4FF00002C3F8C821054B43F2A5
S11306B03A021A60064B4FF000029A60BD4680BCB5
S11306C0704700BF00C00F4063000500DE872804A8
S11306D000ED00E0FEE7FEE7FEE7FEE7FEE7FEE7EB
S11306E0FEE7FEE7FEE7FEE780B485B000AF786082
S11306F039607B681F2B03D97B68A3F1200300E0DA
S11307007B68FB607B681F2B19D81C4B1B4AD2F8F3
S1130710A811FA684FF0030000FA02F26FEA02022D
S11307200A40C3F8A821154B144AD2F8A811FA6854
S1130730386800FA02F20A43C3F8A82118E00F4B04
S11307400E4AD2F8AC11FA684FF0030000FA02F234
S11307506FEA02020A40C3F8AC21084B074AD2F8F8
S1130760AC11FA68386800FA02F20A43C3F8AC2103
S113077007F11407BD4680BC704700BF00C00F409E
S113078080B485B000AF78607B681F2B06D87B6887
S1130790FB600D4BD3F8A831BB6007E07B68A3F185
S11307A02003FB60084BD3F8AC31BB60FB68BA682C
S11307B022FA03F303F00303BB60BB68184607F196
S11307C01407BD4680BC704700C00F4080B584B09C
S11307D000AF7860184B1B68BB607868FFF7D0FFE8
S11307E0F860FB68032B1BD801A252F823F000BF6A
S11307F001080000090800001108000019080000A1
S11308004FF00403FB600BE04FF00103FB6007E0D3
S11308104FF00203FB6003E04FF00803FB6000BFEE
S1130820BA68FB68B2FBF3F3BB60BB68184607F118
S11308301007BD4680BD00BF0800001080B483B01F
S113084000AF78600B46FB70FB78012B0AD10F4A8E
S11308500E4BD3F8C41078680D4B03400B43C2F819
S1130860C4300EE0FB78002B0BD1084A074BD3F8B9
S1130870C4107B686FEA03031940054B0B40C2F8B0
S1130880C43007F10C07BD4680BC704700C00F4060
S1130890DEF7EFEF80B400AF044B4FF00002C3F873
S11308A0C02030BFBD4680BC704700BF00C00F40B1
S11308B080B400AF064B4FF004021A61054B4FF0B1
S11308C00802C3F8C02030BFBD4680BC704700BFDB
S11308D000ED00E000C00F4080B400AF064B4FF0C5
S11308E004021A61054B4FF00902C3F8C02030BF5F
S11308F0BD4680BC704700BF00ED00E000C00F4063
S113090080B400AF064B4FF004021A61054B4FF060
S11309100302C3F8C02030BFBD4680BC704700BF8F
S113092000ED00E000C00F4080B485B000AF034686
S1130930FB714FF00003FB60FB79042B1BD801A271
S113094052F823F0590900005F090000650900000E
S11309506B090000710900000B4BFB600CE00B4BB2
S1130960FB6009E00A4BFB6006E00A4BFB6003E016
S1130970094BFB6000E000BFFB68184607F1140751
S1130980BD4680BC704700BF00C0092020C00920BC
S113099040C0092060C0092080C0092080B485B00F
S11309A000AF0346FB714FF00003FB60FB79042B9F
S11309B01BD801A252F823F0CD090000D30900008E
S11309C0D9090000DF090000E50900000B4BFB60BA
S11309D00CE00B4BFB6009E00A4BFB6006E00A4BA2
S11309E0FB6003E0094BFB6000E000BFFB681846B6
S11309F007F11407BD4680BC704700BF00C0092042
S1130A0020C0092040C0092060C0092080C00920FE
S1130A1080B485B000AF0346FB714FF00003FB6068
S1130A20FB79042B1BD801A252F823F0410A0000E1
S1130A30470A00004D0A0000530A0000590A00004A
S1130A400B4BFB600CE00B4BFB6009E00A4BFB60BB
S1130A5006E00A4BFB6003E0094BFB6000E000BFCB
S1130A60FB68184607F11407BD4680BC704700BFF9
S1130A7000C0092020C0092040C0092060C009200E
S1130A8080C0092080B584B000AF396013460246A7
S1130A90FA71BB71FB791846FFF746FFF860FB68F3
S1130AA0002B11D0BB79002B06D0FB681A683B6879
S1130AB01A43FB681A6007E0FB681A683B686FEA30
S1130AC003031A40FB681A6007F11007BD4680BD96
S1130AD080B584B000AF03463960FB71FB791846DA
S1130AE0FFF722FFF860FB68002B02D0FB683A682E
S1130AF09A6107F11007BD4680BD00BF80B584B080
S1130B0000AF03463960FB71FB791846FFF70CFF11
S1130B10F860FB68002B02D0FB683A68DA6107F1E1
S1130B201007BD4680BD00BF80B584B000AF03464A
S1130B30FB71FB791846FFF7F7FEF860FB68002BA2
S1130B4002D0FB685B6901E04FF00003184607F12F
S1130B501007BD4680BD00BF80B483B000AF3960CC
S1130B6013460246FA71BB71FB79002B06D1BB799F
S1130B70002B03D1134B3A681A611EE0FB79022B58
S1130B8006D1BB79002B03D10E4B3A681A6314E0EB
S1130B90FB79002B06D1BB79012B03D1094B3A68B1
S1130BA05A610AE0FB79022B06D1BB79012B03D1F0
S1130BB0044B3A685A6300E0FEE707F10C07BD46B0
S1130BC080BC70478080024080B483B000AF39603D
S1130BD013460246FA71BB71FB79002B0CD1BB7929
S1130BE0002B09D1204B5A683B6822FA03F3DBB28D
S1130BF003F00103DBB230E0FB79022B0CD1BB79AB
S1130C00002B09D1184B5A6A3B6822FA03F3DBB272
S1130C1003F00103DBB220E0FB79002B0CD1BB799C
S1130C20012B09D1104B9A683B6822FA03F3DBB21B
S1130C3003F00103DBB210E0FB79022B0CD1BB798A
S1130C40012B09D1084B9A6A3B6822FA03F3DBB201
S1130C5003F00103DBB200E0FEE7184607F10C07DE
S1130C60BD4680BC704700BF8080024080B483B022
S1130C7000AF03463960FB71FB79002B03D1084BAD
S1130C803A68DA6007E0FB79022B03D1044B3A6837
S1130C90DA6200E0FEE707F10C07BD4680BC70474E
S1130CA08080024080B582B000AF396013460246AE
S1130CB0FA71BB71FA79BB79104639681A46FFF7A5
S1130CC0E1FE07F10807BD4680BD00BF80B582B0D4
S1130CD000AF03463960FB71FB7918463968FFF7AA
S1130CE0F7FE07F10807BD4680BD00BF80B582B09E
S1130CF000AF03463960FB71FB7918463968FFF78A
S1130D00FDFE07F10807BD4680BD00BF80B582B077
S1130D1000AF0346FB71FB791846FFF705FF034656
S1130D20184607F10807BD4680BD00BF80B582B0F4
S1130D3000AF396013460246FA71BB71FA79BB7988
S1130D40104639681A46FFF707FF07F10807BD4642
S1130D5080BD00BF80B582B000AF39601346024643
S1130D60FA71BB71FA79BB79104639681A46FFF7F4
S1130D702BFF0346184607F10807BD4680BD00BF98
S1130D8080B582B000AF03463960FB71FB79184629
S1130D903968FFF76BFF07F10807BD4680BD00BF48
S1130DA080B584B000AF396013460246FA71BB7156
S1130DB0FB791846FFF7B8FDF860FB68002B11D0EB
S1130DC0BB79002B06D0FB681A693B681A43FB68A1
S1130DD01A6107E0FB681A693B686FEA03031A406B
S1130DE0FB681A6107F11007BD4680BD80B584B069
S1130DF000AFF871B971BA80FB70FB791846FFF740
S1130E00CDFDF860FB68002B35D0FB78002B14D0A7
S1130E10BB79002B08D0FB685B889AB2BB8813436C
S1130E209AB2FB685A8026E0FB681B889AB2BB889A
S1130E3013439AB2FB681A801DE0BB79002B0DD0D6
S1130E40FB685B889BB29AB2BB886FEA03039BB2D0
S1130E5013409BB29AB2FB685A800CE0FB681B8873
S1130E609BB29AB2BB886FEA03039BB213409BB256
S1130E709AB2FB681A8007F11007BD4680BD00BF17
S1130E8080B584B000AFF871B971BA80FB70FB799A
S1130E901846FFF783FDF860FB68002B35D0FB781C
S1130EA0002B14D0BB79002B08D0FB685B8A9AB264
S1130EB0BB8813439AB2FB685A8226E0FB681B8AFC
S1130EC09AB2BB8813439AB2FB681A821DE0BB79BD
S1130ED0002B0DD0FB685B8A9BB29AB2BB886FEA89
S1130EE003039BB213409BB29AB2FB685A820CE094
S1130EF0FB681B8A9BB29AB2BB886FEA03039BB25E
S1130F0013409BB29AB2FB681A8207F11007BD46E0
S1130F1080BD00BF80B584B000AF13460246FA71AD
S1130F200A46BA71BB80FB791846FFF737FDF860B3
S1130F30FB68002B09D0BB79002B03D0FB68BA886F
S1130F405A8302E0FB68BA881A8307F11007BD468A
S1130F5080BD00BF80B584B000AF13460246FA716D
S1130F600A46BA71BB80FB791846FFF717FDF86093
S1130F70FB68002B09D0BB79002B03D0FB68BA882F
S1130F80DA8302E0FB68BA889A8307F11007BD464A
S1130F9080BD00BF80B584B000AF02460B46FA7135
S1130FA0BB71FB791846FFF7F9FCF860FB68002B6E
S1130FB00AD0BB79002B03D0FB68DB8A9BB205E027
S1130FC0FB689B8A9BB201E04FF00003184607F1CF
S1130FD01007BD4680BD00BF80B584B000AFF87176
S1130FE0B9717A713B71FB791846FFF711FDF8600E
S1130FF0FB68002B22D03B79002B0DD0BB79032B4F
S11310001CD8BB79BA79F9688A5CD1B27A790A4377
S1131010D1B2FA68D15411E0BB79032B0ED8BB7955
S1131020BA79F9688A5CD2B2D1B27A796FEA0202EB
S1131030D2B20A40D2B2D1B2FA68D15407F1100741
S1131040BD4680BD80B584B000AFF871B9717A71C6
S11310503B71FB791846FFF7DBFCF860FB68002B5B
S113106026D03B79002B0FD0BB79032B20D8BB793A
S1131070BA79F9688A18127CD1B27A790A43D2B261
S1131080F968CB181A7413E0BB79032B10D8BB7919
S1131090BA79F9688A18127CD2B2D1B27A796FEA35
S11310A00202D2B20A40D2B2D2B2F968CB181A7490
S11310B007F11007BD4680BD80B584B000AF13466C
S11310C00246FA710A46BA717B71FB791846FFF73A
S11310D09FFCF860FB68002B07D0BB79032B04D876
S11310E0BB79FA68D3187A791A7607F11007BD46E6
S11310F080BD00BF80B584B000AF13460246FA71CC
S11311000A46BA717B71FB791846FFF781FCF860D7
S1131110FB68002B07D0BB79032B04D8BB79FA6892
S1131120D3187A791A7707F11007BD4680BD00BF3E
S113113080B584B000AF02460B46FA71BB71FB79EF
S11311401846FFF765FCF860FB68002B08D0BB79F4
S1131150032B05D8BB79FA68D3181B7DDBB201E0F9
S11311604FF00003184607F11007BD4680BD00BFCD
S113117080B483B000AF154B4FF0FF32C3F880202A
S1131180124B4FF00102C3F88420104B4FF0FF3292
S1131190C3F880210D4B4FF00102C3F884214FF0B6
S11311A00003FB710AE0094AFB79D3184FF00002EF
S11311B083F80023FB7903F10103FB71FB791F2BF7
S11311C0F1D907F10C07BD4680BC704700E100E08F
S11311D080B483B000AF1C4B4FF020625A601A4BAE
S11311E04FF000029A60184B184ADA60164B4FF021
S11311F000021A61144B4FF000025A614FF00003D1
S1131200FB7109E0104AFB79D3184FF000021A76FB
S1131210FB7903F10103FB71FB791F2BF2D90A4B14
S11312204FF000025A62084B4FF0FF329A62064BAD
S11312304FF0FF32DA62044B4FF0FF321A6307F1CA
S11312400C07BD4680BC704700ED00E00000FA05C5
S113125080B483B000AF7860034B7A689A6007F17A
S11312600C07BD4680BC704700ED00E080B487B039
S113127000AF13460246FA710A46BA717B71BB7914
S11312807B61FB794FEA43033B611D4BFB607B6948
S11312900F2B07D97B69A3F110037B613B6903F131
S11312A001033B613B694FEA8303FA68D3183A6947
S11312B04FEA8202F9688A1811687A694FEA420291
S11312C04FF0030000FA02F26FEA02020A401A60C9
S11312D03B694FEA8303FA68D3183A694FEA8202FA
S11312E0F9688A18116878797A694FEA420200FA33
S11312F002F20A431A6007F11C07BD4680BC70471E
S113130000C0024080B487B000AF13460246FA71B1
S11313100A46BA717B71BB797B61FB794FEA43035F
S11313203B611D4BFB607B690F2B07D97B69A3F1E4
S113133010037B613B6903F101033B613B694FEAA5
S11313408303FA68D3183A694FEA8202F9688A1863
S113135011687A694FEA42024FF0030000FA02F280
S11313606FEA02020A401A603B694FEA8303FA6893
S1131370D3183A694FEA8202F9688A1811687879B1
S11313807A694FEA420200FA02F20A431A6007F14C
S11313901C07BD4680BC704740C0024080B485B085
S11313A000AF13460246FA710A46BA717B71184BB4
S11313B0FB607B79012B12D1FB794FEA8303FA6836
S11313C0D318FA794FEA8202F9688A181168BA794F
S11313D04FF0010000FA02F20A431A6013E0FB79AD
S11313E04FEA8303FA68D318FA794FEA8202F9685C
S11313F08A181168BA794FF0010000FA02F26FEA14
S113140002020A401A6007F11407BD4680BC704707
S113141068C0024080B483B000AF0346FB71FB791F
S1131420012B06D10A4B0A4A926A42F008029A62D8
S113143008E0FB79002B05D1054B054A926A22F09E
S113144008029A6207F10C07BD4680BC704700BFD2
S113145000C0024080B485B000AF02460B46FA716A
S1131460BB71FB79012B02D14FF00503FB60BB7903
S1131470002B02D14FF00A03FB60044BFA68DA67D1
S113148007F11407BD4680BC704700BF00C002408E
S113149080B582B000AF78607B6819787B685A7831
S11314A07B689B78084611461A46FFF7DFFE7B6887
S11314B019787B685A787B68DB78084611461A46A7
S11314C0FFF720FF7B6819787B685A787B681B7963
S11314D0084611461A46FFF761FF07F10807BD46A3
S11314E080BD00BF0000001000000020000000804C
S11314F004000000080000001000000020000000AC
S11315004000000000000000F8B500BFF8BC08BCB3
S11315109E46704765010000F8B500BFF8BC08BCE2
S11315209E46704735010000000000004815000089
S10F15300000001010000000200000006B
S10B153C90EBFF7F01000000A9
S1131548000000000000000000E1F50500000000B4
S9030000FC
